{
  "transactions": [
    {
      "hash": "0x945b4b947e5087b7b8a10a5750dbf19e7c6d235e1b02dbc6cd3c4e09870362ec",
      "transactionType": "CALL",
      "contractName": null,
      "contractAddress": "0xdb8fb91db401488428d3ff65df18db1406f419c7",
      "function": "mint(string)",
      "arguments": [
        "\"https://ipfs.io/ipfs/QmbUizF88PWRLv2WHn8yegXpTY9WXvgnuu7EB4iEDmRGZt\""
      ],
      "transaction": {
        "from": "0x6b748671f2f3b1d264f554f87b64227e0ac142ec",
        "to": "0xdb8fb91db401488428d3ff65df18db1406f419c7",
        "gas": "0x3d2da",
        "value": "0x0",
        "input": "0xd85d3d270000000000000000000000000000000000000000000000000000000000000020000000000000000000000000000000000000000000000000000000000000004368747470733a2f2f697066732e696f2f697066732f516d6255697a4638385057524c763257486e387965675870545939575876676e7575374542346945446d52475a740000000000000000000000000000000000000000000000000000000000",
        "nonce": "0x6d",
        "chainId": "0xaa36a7"
      },
      "additionalContracts": [],
      "isFixedGasLimit": false
    },
    {
      "hash": "0x6ab9f851a4a7d57d074c202aa7eaf334f7aea62a7a7cff77f2519bb4010d0104",
      "transactionType": "CALL",
      "contractName": null,
      "contractAddress": "0xdb8fb91db401488428d3ff65df18db1406f419c7",
      "function": "mint(string)",
      "arguments": [
        "\"https://ipfs.io/ipfs/QmYqHMDenySgjihh89rSH4EsMea6ogot1SNKNcsXCFc9CD\""
      ],
      "transaction": {
        "from": "0x6b748671f2f3b1d264f554f87b64227e0ac142ec",
        "to": "0xdb8fb91db401488428d3ff65df18db1406f419c7",
        "gas": "0x31a54",
        "value": "0x0",
        "input": "0xd85d3d270000000000000000000000000000000000000000000000000000000000000020000000000000000000000000000000000000000000000000000000000000004368747470733a2f2f697066732e696f2f697066732f516d5971484d44656e7953676a69686838397253483445734d6561366f676f7431534e4b4e6373584346633943440000000000000000000000000000000000000000000000000000000000",
        "nonce": "0x6e",
        "chainId": "0xaa36a7"
      },
      "additionalContracts": [],
      "isFixedGasLimit": false
    },
    {
      "hash": "0x7914657c6b187860302fc577393eca5c583495af6ae10d1bb5c4f8f9148084e6",
      "transactionType": "CALL",
      "contractName": null,
      "contractAddress": "0xdb8fb91db401488428d3ff65df18db1406f419c7",
      "function": "mint(string)",
      "arguments": [
        "\"https://ipfs.io/ipfs/QmcQHWWdoxXBQXtVtMpq2seohjWTcfj7JLoTNSn1UkvFWB\""
      ],
      "transaction": {
        "from": "0x6b748671f2f3b1d264f554f87b64227e0ac142ec",
        "to": "0xdb8fb91db401488428d3ff65df18db1406f419c7",
        "gas": "0x31a54",
        "value": "0x0",
        "input": "0xd85d3d270000000000000000000000000000000000000000000000000000000000000020000000000000000000000000000000000000000000000000000000000000004368747470733a2f2f697066732e696f2f697066732f516d6351485757646f78584251587456744d70713273656f686a575463666a374a4c6f544e536e31556b764657420000000000000000000000000000000000000000000000000000000000",
        "nonce": "0x6f",
        "chainId": "0xaa36a7"
      },
      "additionalContracts": [],
      "isFixedGasLimit": false
    },
    {
      "hash": "0x9e5fee1e46cf27f9eaa00f0764ef2aeca333ab37288fdd972be2f652f6ef76f0",
      "transactionType": "CALL",
      "contractName": null,
      "contractAddress": "0xdb8fb91db401488428d3ff65df18db1406f419c7",
      "function": "mint(string)",
      "arguments": [
        "\"https://ipfs.io/ipfs/QmRNBESTZFxT3zQj2TU2BM5uMDn5XqkxByqcAv3vfzbat3\""
      ],
      "transaction": {
        "from": "0x6b748671f2f3b1d264f554f87b64227e0ac142ec",
        "to": "0xdb8fb91db401488428d3ff65df18db1406f419c7",
        "gas": "0x31a54",
        "value": "0x0",
        "input": "0xd85d3d270000000000000000000000000000000000000000000000000000000000000020000000000000000000000000000000000000000000000000000000000000004368747470733a2f2f697066732e696f2f697066732f516d524e424553545a467854337a516a32545532424d35754d446e3558716b784279716341763376667a626174330000000000000000000000000000000000000000000000000000000000",
        "nonce": "0x70",
        "chainId": "0xaa36a7"
      },
      "additionalContracts": [],
      "isFixedGasLimit": false
    }
  ],
  "receipts": [
    {
      "status": "0x1",
      "cumulativeGasUsed": "0xb179de",
      "logs": [
        {
          "address": "0xdb8fb91db401488428d3ff65df18db1406f419c7",
          "topics": [
            "0xddf252ad1be2c89b69c2b068fc378daa952ba7f163c4a11628f55a4df523b3ef",
            "0x0000000000000000000000000000000000000000000000000000000000000000",
            "0x0000000000000000000000006b748671f2f3b1d264f554f87b64227e0ac142ec",
            "0x0000000000000000000000000000000000000000000000000000000000000000"
          ],
          "data": "0x",
          "blockHash": "0x8abf14a2852ab33d1252045d7f473b73ebf790f4478fa907cb2cceac666925d0",
          "blockNumber": "0x66878a",
          "transactionHash": "0x945b4b947e5087b7b8a10a5750dbf19e7c6d235e1b02dbc6cd3c4e09870362ec",
          "transactionIndex": "0x3b",
          "logIndex": "0x95",
          "removed": false
        }
      ],
      "logsBloom": "0x00000000000000000000000000000000000000000000000000000000000000000000000000000000000000000000000000000000000000000000000000000000000000000000000000000008000000000000000000080000000000000000000000000000060000000000000000000820000000000000000000000010000000000000000000000000000000000000000000000000000000000000000000000000000000000000000000000000000200000000000000000000000000000000000000000002000000800000000000000000000000000000000000000000000020000000080000000000000000000000000000000000000000000000000000000000",
      "type": "0x2",
      "transactionHash": "0x945b4b947e5087b7b8a10a5750dbf19e7c6d235e1b02dbc6cd3c4e09870362ec",
      "transactionIndex": "0x3b",
      "blockHash": "0x8abf14a2852ab33d1252045d7f473b73ebf790f4478fa907cb2cceac666925d0",
      "blockNumber": "0x66878a",
      "gasUsed": "0x2c4ad",
      "effectiveGasPrice": "0x24dfa5d66",
      "from": "0x6b748671f2f3b1d264f554f87b64227e0ac142ec",
      "to": "0xdb8fb91db401488428d3ff65df18db1406f419c7",
      "contractAddress": null
    },
    {
      "status": "0x1",
      "cumulativeGasUsed": "0xb3b8f3",
      "logs": [
        {
          "address": "0xdb8fb91db401488428d3ff65df18db1406f419c7",
          "topics": [
            "0xddf252ad1be2c89b69c2b068fc378daa952ba7f163c4a11628f55a4df523b3ef",
            "0x0000000000000000000000000000000000000000000000000000000000000000",
            "0x0000000000000000000000006b748671f2f3b1d264f554f87b64227e0ac142ec",
            "0x0000000000000000000000000000000000000000000000000000000000000001"
          ],
          "data": "0x",
          "blockHash": "0x8abf14a2852ab33d1252045d7f473b73ebf790f4478fa907cb2cceac666925d0",
          "blockNumber": "0x66878a",
          "transactionHash": "0x6ab9f851a4a7d57d074c202aa7eaf334f7aea62a7a7cff77f2519bb4010d0104",
          "transactionIndex": "0x3c",
          "logIndex": "0x96",
          "removed": false
        }
      ],
      "logsBloom": "0x000000000000000000000000000000000000000000000000000000000000000000000000000000000000000000000000000000000000000000000000000400000000000000000000000000080000000000000000000c0000000000000000000000000000060000000000000000000820000000000000000000000010000000000000000000000000000000000000000000000000000000000000000000000000000000000000000000000000000200000000000000000000000000000000000000000002000000800000000000000000000000000000000000000000000060000000080000000000000000000000000000000000000000000000000000000000",
      "type": "0x2",
      "transactionHash": "0x6ab9f851a4a7d57d074c202aa7eaf334f7aea62a7a7cff77f2519bb4010d0104",
      "transactionIndex": "0x3c",
      "blockHash": "0x8abf14a2852ab33d1252045d7f473b73ebf790f4478fa907cb2cceac666925d0",
      "blockNumber": "0x66878a",
      "gasUsed": "0x23f15",
      "effectiveGasPrice": "0x24dfa5d66",
      "from": "0x6b748671f2f3b1d264f554f87b64227e0ac142ec",
      "to": "0xdb8fb91db401488428d3ff65df18db1406f419c7",
      "contractAddress": null
    },
    {
      "status": "0x1",
      "cumulativeGasUsed": "0xb5f808",
      "logs": [
        {
          "address": "0xdb8fb91db401488428d3ff65df18db1406f419c7",
          "topics": [
            "0xddf252ad1be2c89b69c2b068fc378daa952ba7f163c4a11628f55a4df523b3ef",
            "0x0000000000000000000000000000000000000000000000000000000000000000",
            "0x0000000000000000000000006b748671f2f3b1d264f554f87b64227e0ac142ec",
            "0x0000000000000000000000000000000000000000000000000000000000000002"
          ],
          "data": "0x",
          "blockHash": "0x8abf14a2852ab33d1252045d7f473b73ebf790f4478fa907cb2cceac666925d0",
          "blockNumber": "0x66878a",
          "transactionHash": "0x7914657c6b187860302fc577393eca5c583495af6ae10d1bb5c4f8f9148084e6",
          "transactionIndex": "0x3d",
          "logIndex": "0x97",
          "removed": false
        }
      ],
      "logsBloom": "0x04000000000000000000000000000000000000000000000000000000000000000000000000000000000000000000000000000000000000000000000000000000000000000000000000000008000000000000000000080000000000000000000000000000060000000000000000000820000000000000000000000010000000000000000000000000000000000000000000000000000000000000000000000000000000000000000000000100000200000000000000000000000000000000000000000002000000800000000000000000000000000000000000000000000020000000080000000000000000000000000000000000008000000000000000000000",
      "type": "0x2",
      "transactionHash": "0x7914657c6b187860302fc577393eca5c583495af6ae10d1bb5c4f8f9148084e6",
      "transactionIndex": "0x3d",
      "blockHash": "0x8abf14a2852ab33d1252045d7f473b73ebf790f4478fa907cb2cceac666925d0",
      "blockNumber": "0x66878a",
      "gasUsed": "0x23f15",
      "effectiveGasPrice": "0x24dfa5d66",
      "from": "0x6b748671f2f3b1d264f554f87b64227e0ac142ec",
      "to": "0xdb8fb91db401488428d3ff65df18db1406f419c7",
      "contractAddress": null
    },
    {
      "status": "0x1",
      "cumulativeGasUsed": "0xb8371d",
      "logs": [
        {
          "address": "0xdb8fb91db401488428d3ff65df18db1406f419c7",
          "topics": [
            "0xddf252ad1be2c89b69c2b068fc378daa952ba7f163c4a11628f55a4df523b3ef",
            "0x0000000000000000000000000000000000000000000000000000000000000000",
            "0x0000000000000000000000006b748671f2f3b1d264f554f87b64227e0ac142ec",
            "0x0000000000000000000000000000000000000000000000000000000000000003"
          ],
          "data": "0x",
          "blockHash": "0x8abf14a2852ab33d1252045d7f473b73ebf790f4478fa907cb2cceac666925d0",
          "blockNumber": "0x66878a",
          "transactionHash": "0x9e5fee1e46cf27f9eaa00f0764ef2aeca333ab37288fdd972be2f652f6ef76f0",
          "transactionIndex": "0x3e",
          "logIndex": "0x98",
          "removed": false
        }
      ],
      "logsBloom": "0x00000000000000000000000000000000000000000000000000000000000000000000000000000000000000000000000000000000020000000000000000000000000000000000000000000008000000000000000000080000000000000000000000000000060000000000000000000820000000000000000000000010000000000000000000000000000000000000000000000000000000000000000000000000000000000000000000000000000200000000000000800000000000000000400000000002000000800000000000000000000000000000000000000000000020000000080000000000000000000000000000000000000000000000000000000000",
      "type": "0x2",
      "transactionHash": "0x9e5fee1e46cf27f9eaa00f0764ef2aeca333ab37288fdd972be2f652f6ef76f0",
      "transactionIndex": "0x3e",
      "blockHash": "0x8abf14a2852ab33d1252045d7f473b73ebf790f4478fa907cb2cceac666925d0",
      "blockNumber": "0x66878a",
      "gasUsed": "0x23f15",
      "effectiveGasPrice": "0x24dfa5d66",
      "from": "0x6b748671f2f3b1d264f554f87b64227e0ac142ec",
      "to": "0xdb8fb91db401488428d3ff65df18db1406f419c7",
      "contractAddress": null
    }
  ],
  "libraries": [],
  "pending": [],
  "returns": {},
  "timestamp": 1726722675,
  "chain": 11155111,
  "commit": "45581db"
}